:100000000C9458000C9480000C9480000C94800098
:100010000C9480000C9480000C9480000C94800060
:100020000C9480000C9480000C9480000C94800050
:100030000C9480000C9480000C9480000C94800040
:100040000C945E040C9480000C9480000C9480004E
:100050000C9480000C9480000C9480000C94800020
:100060000C94A8040C9480000000000025002800D7
:100070002B00040404040404040402020202020229
:10008000030303030303010204081020408001025C
:1000900004081020010204081020000000080002DB
:1000A0000100000304070000000000000000C70575
:1000B00011241FBECFEFD8E0DEBFCDBF11E0A0E01E
:1000C000B1E0EAEEFCE002C005900D92AC35B1075C
:1000D000D9F722E0ACE5B1E001C01D92A733B20729
:1000E000E1F710E0C8E5D0E004C02197FE010E94CE
:1000F0006D06C735D107C9F70E94E7050C94730652
:100100000C94000008950895AF92BF92CF92DF92B1
:10011000EF92FF920F931F93CF93DF936C017B01BC
:100120008B01040F151FEB015E01AE18BF08C0174D
:10013000D10759F06991D601ED91FC910190F081C0
:10014000E02DC6010995892B79F7C501DF91CF9183
:100150001F910F91FF90EF90DF90CF90BF90AF90E5
:10016000089590E0FC01E656FF4F2491FC01EA5708
:10017000FF4F3491FC01EE58FF4FE491EE23C9F09C
:10018000222339F0233001F1A8F4213019F1223073
:1001900029F1F0E0EE0FFF1FE859FF4FA591B49150
:1001A0008FB7F894EC91611126C030953E233C93B3
:1001B0008FBF08952730A9F02830C9F0243049F7BF
:1001C000809180008F7D03C0809180008F77809325
:1001D0008000DFCF84B58F7784BDDBCF84B58F7D82
:1001E000FBCF8091B0008F778093B000D2CF809109
:1001F000B0008F7DF9CF3E2BDACF3FB7F8948091D6
:10020000130290911402A0911502B091160226B526
:10021000A89B05C02F3F19F00196A11DB11D3FBF3E
:10022000BA2FA92F982F8827BC01CD01620F711D0D
:10023000811D911D42E0660F771F881F991F4A9507
:10024000D1F708958F929F92AF92BF92CF92DF9293
:10025000EF92FF924B015C010E94FD006B017C015B
:100260000E94FD006C197D098E099F09683E73404C
:1002700081059105A8F321E0821A9108A108B1082F
:1002800088EEC80E83E0D81EE11CF11C8114910495
:10029000A104B10429F7FF90EF90DF90CF90BF90B9
:1002A000AF909F908F900895089520919D01260F03
:1002B0003327331F21323105ECF42091E601FC0194
:1002C00090E080E0243069F082E00895A0919D01E3
:1002D0002191AC0143585E4FA40FB52FB11D2C9353
:1002E0000196861798F380919D01680F60939D0198
:1002F00080E0089581E008951092E60181E0809306
:10030000E5011092C00161E082E10E94B10061E06C
:1003100083E10E94B100E9EBF0E080818E7F808371
:1003200080818D7F808388E48093B80085E480930A
:10033000BC000895CF93DF9391E090937C018823D4
:10034000B9F0C091B800D091BA008091BC008A7B0E
:100350008093BC0060E082E10E94B10060E083E134
:100360000E94B1000E947C01D093BA00C093B800F3
:10037000DF91CF9108950895E0911E0280911D02B2
:10038000E81730F4F0E0E45AFE4F808190E00895E1
:100390008FEF9FEF089590911E0280911D022FEF25
:1003A0003FEF981748F4E92FF0E0E45AFE4F208120
:1003B00030E09F5F90931E02C901089580911D0255
:1003C00090911E02891B990B0895CF92DF92EF92B4
:1003D000FF920F931F93CF93DF937C01CB018A0190
:1003E0002091EC01222389F0EB016B01C40ED51E94
:1003F000CC15DD0569F06991D701ED91FC91019073
:10040000F081E02DC7010995F3CF642F0E945501BB
:10041000C801DF91CF911F910F91FF90EF90DF9076
:10042000CF900895CF93DF931F92CDB7DEB7698346
:100430002091EC012223F9F020911B02203258F088
:1004400021E030E0FC013383228390E080E00F90D4
:10045000DF91CF91089580911C02E82FF0E0E351E5
:10046000FE4F998190838F5F80931C0280931B02C3
:1004700081E090E0ECCF61E0CE0101960E94550151
:10048000F7CFCF92DF92EF92FF920F931F93CF930C
:10049000DF93FC01C48121E02093EC01C0930D02A5
:1004A00010921C0210921B028385682B8FE192E050
:1004B0000E941202D0911B02D13208F092C00E9419
:1004C000FD006B017C018091E601811165C082E035
:1004D0008093E60181E08093E5018FEF8093E40152
:1004E0001092E301D093E201ADEEB1E0E2ECF1E075
:1004F00080E0D81385C01092C1018091C101CC0F5A
:10050000C82BC093C1018091C001813009F07CC02B
:100510001092C0010E94FD006B017C018091C1011D
:100520008093BB008091E8019091E901A091EA01DC
:10053000B091EB01892B8A2B8B2B99F00E94FD0047
:100540000091E8011091E9012091EA013091EB015D
:100550006C197D098E099F090617170728073907A7
:10056000E0F18091BC0083FDD9CF85EC8093BC0085
:100570000E94FD006B017C018091E601823009F44C
:1005800045C08091E4018F3F61F18091E4018032A8
:1005900041F18091E40125C08091E8019091E90149
:1005A000A091EA01B091EB01892B8A2B8B2B09F4E6
:1005B0008ACF0E94FD000091E8011091E90120918D
:1005C000EA013091EB016C197D098E099F0906172C
:1005D00017072807390708F076CF8091E7010E94B6
:1005E0009A0110921C0210921B021092EC01DF91F2
:1005F000CF911F910F91FF90EF90DF90CF900895D2
:100600009D9191938F5F75CF85EEB0CF8091E8017A
:100610009091E901A091EA01B091EB01892B8A2B1D
:100620008B2B09F4A9CF0E94FD000091E8011091E5
:10063000E9012091EA013091EB016C197D098E09E5
:100640009F09061717072807390708F095CFC5CF68
:1006500090E080E00895FC0101900020E9F73197D7
:10066000AF01481B590BBC018BE292E00C94840053
:100670000F931F93CF938C01C62F0E9441026C2FC2
:100680006460C8010E9441026C2F6B7FC8010E9408
:10069000410283EC90E00197F1F7CF911F910F9108
:1006A00008950F931F93CF93DF938C01D62FC42F00
:1006B000607F642B0E94380380E1D89FB001112431
:1006C0006C2BC801DF91CF911F910F910C943803CF
:1006D000CF93DF93CDB7DEB728970FB6F894DEBF80
:1006E0000FBECDBF98E0E0E0F1E0DE011196019091
:1006F0000D929A95E1F790913302961710F46FEFEF
:10070000690F262F30E0220F331F41E050E04C0FDD
:100710005D1F240F351FF9016081680F606840E09C
:100720008BE292E028960FB6F894DEBF0FBECDBFE5
:10073000DF91CF910C945103CF93DF9310921E025F
:1007400010921D0210921C0210921B020E947C014A
:1007500082E890E090931A028093190283E890E077
:100760009093180280931702109230028091350204
:10077000823018F098E0909330028093330262E365
:1007800070E080E090E00E942201609136028BE2EE
:1007900092E00E94410268EE73E080E090E00E94E7
:1007A000220160E38BE292E00E943803CBE4D6E4BE
:1007B000CE010197F1F760E38BE292E00E943803EB
:1007C0002197F1F760E38BE292E00E94380383E522
:1007D00092E00197F1F760E28BE292E00E94380329
:1007E00060913002606240E08BE292E00E9451032F
:1007F00084E08093310240E06CE08BE292E00E9462
:10080000510340E061E08BE292E00E945103CBE3B0
:10081000DFE1CE010197F1F782E08093320240E000
:1008200066E08BE292E00E94510340E062E08BE2DE
:1008300092E00E9451032197F1F7DF91CF91089543
:1008400041E00E94510381E090E0089585ED80939E
:10085000BC008091E8019091E901A091EA01B0917A
:10086000EB010796A11DB11D23E0B695A7959795BD
:1008700087952A95D1F72091BC0024FD03C01092E2
:10088000E60108954091E8015091E9016091EA0183
:100890007091EB01452B462B472B69F30097A1057F
:1008A000B10541F025E32A95F1F700000197A10970
:1008B000B109E1CF8091E7010C949A011F920F9248
:1008C0000FB60F9211242F933F938F939F93AF9363
:1008D000BF9380910F0290911002A0911102B091EC
:1008E000120230910E0223E0230F2D3758F50196A6
:1008F000A11DB11D20930E0280930F029093100250
:10090000A0931102B09312028091130290911402ED
:10091000A0911502B09116020196A11DB11D809300
:10092000130290931402A0931502B0931602BF9184
:10093000AF919F918F913F912F910F900FBE0F908C
:100940001F90189526E8230F0296A11DB11DD2CF46
:100950001F920F920FB60F9211242F933F934F9334
:100960005F936F937F938F939F93AF93BF93EF9317
:10097000FF938091B900887F803609F44AC0F0F572
:10098000883209F4A7C018F5803109F49BC0B8F487
:10099000882309F4F9C0883009F494C0FF91EF91DD
:1009A000BF91AF919F918F917F916F915F914F9187
:1009B0003F912F910F900FBE0F901F901895883187
:1009C00009F488C0803251F78093E40114C0803468
:1009D00009F49DC040F48033B9F38833F9F680936D
:1009E000E40185ECB0C0803509F485C0883509F490
:1009F00096C0883499F60E942604D0CF883909F42D
:100A00008CC038F5883729F050F4883611F08037DB
:100A100029F683E08093E6011092BF0157C0883821
:100A200009F47BC0803919F0803809F0B7CF809184
:100A3000BF01803208F071C0E091BF0181E08E0FEC
:100A40008093BF018091BB00F0E0E156FE4F8083B0
:100A50003DC0803B39F0E0F4803A09F479C0883A2F
:100A600009F09CCF84E08093E60110929E011092E1
:100A70009D01E0911902F0911A02099580919D0162
:100A800081110FC081E080939D0110927D0109C00A
:100A9000803C09F4A6CF883C09F4A3CF883B09F039
:100AA0007DCFE0919E0181E08E0F80939E01F0E06A
:100AB000E358FE4F80818093BB0090919E0180910E
:100AC0009D0129C08091C1018093BB0085EC80937A
:100AD000BC0064CF9091E3018091E201981758F532
:100AE000E091E30181E08E0F8093E301F0E0EE53AB
:100AF000FE4F8081E9CFE091E30181E08E0F80938A
:100B0000E3018091BB00F0E0EE53FE4F80839091B3
:100B1000E3018091E2019817C8F285E8D8CFE0910F
:100B2000E30181E08E0F8093E3018091BB00F0E050
:100B3000EE53FE4F80838091E50181115CCF81E00F
:100B40008093C00184EA8093BC001092E60126CF16
:100B500085EC8093BC001092E6018091BF01803249
:100B600030F4E091BF01F0E0E156FE4F1082609159
:100B7000BF0170E0E0911702F09118028FE991E057
:100B800009951092BF010ACF1092E40134CFEFE132
:100B9000F2E01382128288EE93E0A0E0B0E084835A
:100BA0009583A683B7838CE091E091838083EBE209
:100BB000F2E0138212828EE191E09183808387E2DA
:100BC000848384E1818784E0828713860895789402
:100BD00084B5826084BD84B5816084BD85B5826042
:100BE00085BD85B5816085BD80916E0081608093F3
:100BF0006E0010928100809181008260809381005C
:100C0000809181008160809381008091800081606B
:100C1000809380008091B10084608093B1008091C6
:100C2000B00081608093B00080917A0084608093EE
:100C30007A0080917A00826080937A0080917A00B5
:100C4000816080937A0080917A00806880937A0036
:100C50001092C1000E949C030E949C0388E0809334
:100C6000360260E08BE292E00E94410260E080E0A8
:100C70000E94680386E291E00E942B0361E080E01D
:100C80000E94680387E391E00E942B0360E080E10B
:100C90000E94680389E491E00E942B0362E080E0F7
:100CA0000E9468038EE491E00E942B0361E080E1E2
:100CB0000E94680389E491E00E942B0363E080E0D6
:100CC0000E9468038EE491E00E942B03C0E0D0E014
:100CD0002097F1F30E940000FBCFEE0FFF1F05905D
:0A0CE000F491E02D0994F894FFCF81
:100CEA000000400014005400000000001202E50158
:100CFA002803BB01DE01CB01BC0100000000200477
:100D0A0084002803540136353433323130393837C8
:100D1A0036353433323100363534333231303938BE
:100D2A0037363534333231210031323334003536F7
:0C0D3A00373839303132333435360000A0
:00000001FF
